:1000000012C02CC02BC02AC029C028C027C026C0BF
:1000100025C024C023C022C021C020C01FC01EC0D4
:100020001DC01CC01BC011241FBECFE5D4E0DEBF25
:10003000CDBF10E0A0E6B0E0E6E3F1E002C005903D
:100040000D92A036B107D9F710E0A0E6B0E001C0EC
:100050001D92A036B107E1F702D06BC0D1CF889ACC
:10006000899A8A9A8B9A8C9A8FEF99E6A8E18150A7
:100070009040A040E1F700C00000909A8FEF99E611
:10008000A8E181509040A040E1F700C00000919AA3
:100090008FEF99E6A8E181509040A040E1F700C0C1
:1000A0000000929A8FEF99E6A8E181509040A0401D
:1000B000E1F700C00000939A8FEF99E6A8E1815024
:1000C0009040A040E1F700C00000949A8FEF99E6BD
:1000D000A8E181509040A040E1F700C00000909856
:1000E0008FEF99E6A8E181509040A040E1F700C071
:1000F000000091988FEF99E6A8E181509040A040D0
:10010000E1F700C0000092988FEF99E6A8E18150D6
:100110009040A040E1F700C0000093988FEF99E66F
:10012000A8E181509040A040E1F700C00000949801
:060130009BCFF894FFCF05
:00000001FF
